{
  "contractName": "PhoneRegistry",
  "abi": [
    {
      "inputs": [],
      "stateMutability": "nonpayable",
      "type": "constructor"
    },
    {
      "anonymous": false,
      "inputs": [
        {
          "indexed": false,
          "internalType": "uint256",
          "name": "imei",
          "type": "uint256"
        }
      ],
      "name": "PhoneFound",
      "type": "event"
    },
    {
      "anonymous": false,
      "inputs": [
        {
          "indexed": false,
          "internalType": "uint256",
          "name": "imei",
          "type": "uint256"
        }
      ],
      "name": "PhoneLost",
      "type": "event"
    },
    {
      "anonymous": false,
      "inputs": [
        {
          "indexed": false,
          "internalType": "uint256",
          "name": "imei",
          "type": "uint256"
        },
        {
          "indexed": false,
          "internalType": "string",
          "name": "username",
          "type": "string"
        },
        {
          "indexed": false,
          "internalType": "string",
          "name": "password",
          "type": "string"
        }
      ],
      "name": "PhoneRegistered",
      "type": "event"
    },
    {
      "inputs": [
        {
          "internalType": "uint256",
          "name": "",
          "type": "uint256"
        }
      ],
      "name": "getlocation",
      "outputs": [
        {
          "internalType": "string",
          "name": "latitude",
          "type": "string"
        },
        {
          "internalType": "string",
          "name": "longitude",
          "type": "string"
        }
      ],
      "stateMutability": "view",
      "type": "function",
      "constant": true
    },
    {
      "inputs": [
        {
          "internalType": "uint256",
          "name": "",
          "type": "uint256"
        }
      ],
      "name": "isRegistered",
      "outputs": [
        {
          "internalType": "bool",
          "name": "",
          "type": "bool"
        }
      ],
      "stateMutability": "view",
      "type": "function",
      "constant": true
    },
    {
      "inputs": [
        {
          "internalType": "uint256",
          "name": "",
          "type": "uint256"
        }
      ],
      "name": "phones",
      "outputs": [
        {
          "internalType": "string",
          "name": "username",
          "type": "string"
        },
        {
          "internalType": "string",
          "name": "password",
          "type": "string"
        },
        {
          "internalType": "bool",
          "name": "lost",
          "type": "bool"
        }
      ],
      "stateMutability": "view",
      "type": "function",
      "constant": true
    },
    {
      "inputs": [
        {
          "internalType": "uint256",
          "name": "imei",
          "type": "uint256"
        },
        {
          "internalType": "string",
          "name": "username",
          "type": "string"
        },
        {
          "internalType": "string",
          "name": "password",
          "type": "string"
        }
      ],
      "name": "registerPhone",
      "outputs": [],
      "stateMutability": "nonpayable",
      "type": "function"
    },
    {
      "inputs": [
        {
          "internalType": "uint256",
          "name": "imei",
          "type": "uint256"
        }
      ],
      "name": "reportLost",
      "outputs": [],
      "stateMutability": "nonpayable",
      "type": "function"
    },
    {
      "inputs": [
        {
          "internalType": "uint256",
          "name": "imei",
          "type": "uint256"
        }
      ],
      "name": "reportFound",
      "outputs": [],
      "stateMutability": "nonpayable",
      "type": "function"
    },
    {
      "inputs": [
        {
          "internalType": "uint256",
          "name": "imei",
          "type": "uint256"
        },
        {
          "internalType": "string",
          "name": "newPassword",
          "type": "string"
        }
      ],
      "name": "changePassword",
      "outputs": [],
      "stateMutability": "nonpayable",
      "type": "function"
    },
    {
      "inputs": [
        {
          "internalType": "string",
          "name": "username",
          "type": "string"
        },
        {
          "internalType": "string",
          "name": "password",
          "type": "string"
        }
      ],
      "name": "login",
      "outputs": [
        {
          "internalType": "uint256",
          "name": "",
          "type": "uint256"
        },
        {
          "internalType": "bool",
          "name": "",
          "type": "bool"
        }
      ],
      "stateMutability": "view",
      "type": "function",
      "constant": true
    },
    {
      "inputs": [],
      "name": "getAllRegisteredPhones",
      "outputs": [
        {
          "internalType": "uint256[]",
          "name": "",
          "type": "uint256[]"
        },
        {
          "internalType": "bool[]",
          "name": "",
          "type": "bool[]"
        },
        {
          "internalType": "string[]",
          "name": "",
          "type": "string[]"
        },
        {
          "internalType": "string[]",
          "name": "",
          "type": "string[]"
        }
      ],
      "stateMutability": "view",
      "type": "function",
      "constant": true
    },
    {
      "inputs": [
        {
          "internalType": "uint256",
          "name": "imei",
          "type": "uint256"
        },
        {
          "internalType": "string",
          "name": "latitude",
          "type": "string"
        },
        {
          "internalType": "string",
          "name": "longitude",
          "type": "string"
        }
      ],
      "name": "updateLocation",
      "outputs": [],
      "stateMutability": "nonpayable",
      "type": "function"
    },
    {
      "inputs": [
        {
          "internalType": "uint256",
          "name": "imei",
          "type": "uint256"
        }
      ],
      "name": "getLocation",
      "outputs": [
        {
          "internalType": "string",
          "name": "",
          "type": "string"
        },
        {
          "internalType": "string",
          "name": "",
          "type": "string"
        }
      ],
      "stateMutability": "view",
      "type": "function",
      "constant": true
    }
  ],
  "bytecode": "0x60806040523480156200001157600080fd5b5062000095657048860ddf796040518060400160405280600581526020017f416c6963650000000000000000000000000000000000000000000000000000008152506040518060400160405280600881526020017f616c6963653132330000000000000000000000000000000000000000000000008152506200011f60201b60201c565b620001196603824430f8500d6040518060400160405280600381526020017f426f6200000000000000000000000000000000000000000000000000000000008152506040518060400160405280600681526020017f626f6234353600000000000000000000000000000000000000000000000000008152506200011f60201b60201c565b6200052e565b6002600084815260200190815260200160002060009054906101000a900460ff161562000183576040517f08c379a00000000000000000000000000000000000000000000000000000000081526004016200017a90620003ef565b60405180910390fd5b6040518060600160405280838152602001828152602001600015158152506000808581526020019081526020016000206000820151816000019080519060200190620001d1929190620002ab565b506020820151816001019080519060200190620001f0929190620002ab565b5060408201518160020160006101000a81548160ff021916908315150217905550905050600183908060018154018082558091505060019003906000526020600020016000909190919091505560016002600085815260200190815260200160002060006101000a81548160ff0219169083151502179055507fa3061c8bfc3f0adc7b0685493d80695b8bed655beab79c4cecd72ebc107073d18383836040516200029e9392919062000411565b60405180910390a1505050565b828054620002b990620004b8565b90600052602060002090601f016020900481019282620002dd576000855562000329565b82601f10620002f857805160ff191683800117855562000329565b8280016001018555821562000329579182015b82811115620003285782518255916020019190600101906200030b565b5b5090506200033891906200033c565b5090565b5b80821115620003575760008160009055506001016200033d565b5090565b600062000368826200045c565b62000374818562000467565b93506200038681856020860162000482565b62000391816200051d565b840191505092915050565b6000620003ab60178362000467565b91507f494d454920616c726561647920726567697374657265640000000000000000006000830152602082019050919050565b620003e98162000478565b82525050565b600060208201905081810360008301526200040a816200039c565b9050919050565b6000606082019050620004286000830186620003de565b81810360208301526200043c81856200035b565b905081810360408301526200045281846200035b565b9050949350505050565b600081519050919050565b600082825260208201905092915050565b6000819050919050565b60005b83811015620004a257808201518184015260208101905062000485565b83811115620004b2576000848401525b50505050565b60006002820490506001821680620004d157607f821691505b60208210811415620004e857620004e7620004ee565b5b50919050565b7f4e487b7100000000000000000000000000000000000000000000000000000000600052602260045260246000fd5b6000601f19601f8301169050919050565b611e31806200053e6000396000f3fe608060405234801561001057600080fd5b50600436106100a95760003560e01c8063c823c85511610071578063c823c85514610178578063ca26d14614610194578063e0ba0999146101c5578063e4a44552146101e1578063f055e12b14610202578063f37306531461021e576100a9565b8063579a6988146100ae57806358467dbc146100de5780637f7b13931461010f578063b747288514610140578063c77195111461015c575b600080fd5b6100c860048036038101906100c391906113bc565b610250565b6040516100d5919061195a565b60405180910390f35b6100f860048036038101906100f39190611350565b610270565b604051610106929190611aac565b60405180910390f35b610129600480360381019061012491906113bc565b6103f8565b604051610137929190611975565b60405180910390f35b61015a60048036038101906101559190611439565b6105a8565b005b610176600480360381019061017191906113bc565b610603565b005b610192600480360381019061018d91906113bc565b61072e565b005b6101ae60048036038101906101a991906113bc565b610858565b6040516101bc929190611975565b60405180910390f35b6101df60048036038101906101da91906113e5565b61098c565b005b6101e9610a1a565b6040516101f994939291906118f9565b60405180910390f35b61021c60048036038101906102179190611439565b610f66565b005b610238600480360381019061023391906113bc565b6110e9565b604051610247939291906119ac565b60405180910390f35b60026020528060005260406000206000915054906101000a900460ff1681565b60008060008060005b6001805490508110156103e657600181815481106102c0577f4e487b7100000000000000000000000000000000000000000000000000000000600052603260045260246000fd5b9060005260206000200154925060008084815260200190815260200160002060020160009054906101000a900460ff1691508660405160200161030391906118cb565b6040516020818303038152906040528051906020012060008085815260200190815260200160002060000160405160200161033e91906118e2565b604051602081830303815290604052805190602001201480156103c057508560405160200161036d91906118cb565b604051602081830303815290604052805190602001206000808581526020019081526020016000206001016040516020016103a891906118e2565b60405160208183030381529060405280519060200120145b156103d3578282945094505050506103f1565b80806103de90611cfd565b915050610279565b508160009350935050505b9250929050565b6060806002600084815260200190815260200160002060009054906101000a900460ff1661045b576040517f08c379a000000000000000000000000000000000000000000000000000000000815260040161045290611a11565b60405180910390fd5b600360008481526020019081526020016000206000016003600085815260200190815260200160002060010181805461049390611ccb565b80601f01602080910402602001604051908101604052809291908181526020018280546104bf90611ccb565b801561050c5780601f106104e15761010080835404028352916020019161050c565b820191906000526020600020905b8154815290600101906020018083116104ef57829003601f168201915b5050505050915080805461051f90611ccb565b80601f016020809104026020016040519081016040528092919081815260200182805461054b90611ccb565b80156105985780601f1061056d57610100808354040283529160200191610598565b820191906000526020600020905b81548152906001019060200180831161057b57829003601f168201915b5050505050905091509150915091565b816003600085815260200190815260200160002060000190805190602001906105d2929190611230565b50806003600085815260200190815260200160002060010190805190602001906105fd929190611230565b50505050565b6002600082815260200190815260200160002060009054906101000a900460ff16610663576040517f08c379a000000000000000000000000000000000000000000000000000000000815260040161065a90611a11565b60405180910390fd5b60008082815260200190815260200160002060020160009054906101000a900460ff16156106c6576040517f08c379a00000000000000000000000000000000000000000000000000000000081526004016106bd90611a31565b60405180910390fd5b600160008083815260200190815260200160002060020160006101000a81548160ff0219169083151502179055507fb0c955aa27fd2d084ddeb122c749e76e050df66a4f14bcfd102d9578b7263899816040516107239190611a91565b60405180910390a150565b6002600082815260200190815260200160002060009054906101000a900460ff1661078e576040517f08c379a000000000000000000000000000000000000000000000000000000000815260040161078590611a11565b60405180910390fd5b60008082815260200190815260200160002060020160009054906101000a900460ff166107f0576040517f08c379a00000000000000000000000000000000000000000000000000000000081526004016107e7906119f1565b60405180910390fd5b600080600083815260200190815260200160002060020160006101000a81548160ff0219169083151502179055507ff283a8be29f5b84dc10357eb68cd670fbda7ef8c6a17c905a7139c484d7873878160405161084d9190611a91565b60405180910390a150565b600360205280600052604060002060009150905080600001805461087b90611ccb565b80601f01602080910402602001604051908101604052809291908181526020018280546108a790611ccb565b80156108f45780601f106108c9576101008083540402835291602001916108f4565b820191906000526020600020905b8154815290600101906020018083116108d757829003601f168201915b50505050509080600101805461090990611ccb565b80601f016020809104026020016040519081016040528092919081815260200182805461093590611ccb565b80156109825780601f1061095757610100808354040283529160200191610982565b820191906000526020600020905b81548152906001019060200180831161096557829003601f168201915b5050505050905082565b6002600083815260200190815260200160002060009054906101000a900460ff166109ec576040517f08c379a00000000000000000000000000000000000000000000000000000000081526004016109e390611a11565b60405180910390fd5b806000808481526020019081526020016000206001019080519060200190610a15929190611230565b505050565b606080606080600060018054905011610a68576040517f08c379a0000000000000000000000000000000000000000000000000000000008152600401610a5f90611a51565b60405180910390fd5b600060018054905067ffffffffffffffff811115610aaf577f4e487b7100000000000000000000000000000000000000000000000000000000600052604160045260246000fd5b604051908082528060200260200182016040528015610add5781602001602082028036833780820191505090505b509050600060018054905067ffffffffffffffff811115610b27577f4e487b7100000000000000000000000000000000000000000000000000000000600052604160045260246000fd5b604051908082528060200260200182016040528015610b5a57816020015b6060815260200190600190039081610b455790505b509050600060018054905067ffffffffffffffff811115610ba4577f4e487b7100000000000000000000000000000000000000000000000000000000600052604160045260246000fd5b604051908082528060200260200182016040528015610bd757816020015b6060815260200190600190039081610bc25790505b50905060005b600180549050811015610efd5760008060018381548110610c27577f4e487b7100000000000000000000000000000000000000000000000000000000600052603260045260246000fd5b9060005260206000200154815260200190815260200160002060020160009054906101000a900460ff16848281518110610c8a577f4e487b7100000000000000000000000000000000000000000000000000000000600052603260045260246000fd5b6020026020010190151590811515815250506003600060018381548110610cda577f4e487b7100000000000000000000000000000000000000000000000000000000600052603260045260246000fd5b906000526020600020015481526020019081526020016000206000018054610d0190611ccb565b80601f0160208091040260200160405190810160405280929190818152602001828054610d2d90611ccb565b8015610d7a5780601f10610d4f57610100808354040283529160200191610d7a565b820191906000526020600020905b815481529060010190602001808311610d5d57829003601f168201915b5050505050838281518110610db8577f4e487b7100000000000000000000000000000000000000000000000000000000600052603260045260246000fd5b60200260200101819052506003600060018381548110610e01577f4e487b7100000000000000000000000000000000000000000000000000000000600052603260045260246000fd5b906000526020600020015481526020019081526020016000206001018054610e2890611ccb565b80601f0160208091040260200160405190810160405280929190818152602001828054610e5490611ccb565b8015610ea15780601f10610e7657610100808354040283529160200191610ea1565b820191906000526020600020905b815481529060010190602001808311610e8457829003601f168201915b5050505050828281518110610edf577f4e487b7100000000000000000000000000000000000000000000000000000000600052603260045260246000fd5b60200260200101819052508080610ef590611cfd565b915050610bdd565b50600183838383805480602002602001604051908101604052809291908181526020018280548015610f4e57602002820191906000526020600020905b815481526020019060010190808311610f3a575b50505050509350965096509650965050505090919293565b6002600084815260200190815260200160002060009054906101000a900460ff1615610fc7576040517f08c379a0000000000000000000000000000000000000000000000000000000008152600401610fbe90611a71565b60405180910390fd5b6040518060600160405280838152602001828152602001600015158152506000808581526020019081526020016000206000820151816000019080519060200190611013929190611230565b506020820151816001019080519060200190611030929190611230565b5060408201518160020160006101000a81548160ff021916908315150217905550905050600183908060018154018082558091505060019003906000526020600020016000909190919091505560016002600085815260200190815260200160002060006101000a81548160ff0219169083151502179055507fa3061c8bfc3f0adc7b0685493d80695b8bed655beab79c4cecd72ebc107073d18383836040516110dc93929190611ad5565b60405180910390a1505050565b600060205280600052604060002060009150905080600001805461110c90611ccb565b80601f016020809104026020016040519081016040528092919081815260200182805461113890611ccb565b80156111855780601f1061115a57610100808354040283529160200191611185565b820191906000526020600020905b81548152906001019060200180831161116857829003601f168201915b50505050509080600101805461119a90611ccb565b80601f01602080910402602001604051908101604052809291908181526020018280546111c690611ccb565b80156112135780601f106111e857610100808354040283529160200191611213565b820191906000526020600020905b8154815290600101906020018083116111f657829003601f168201915b5050505050908060020160009054906101000a900460ff16905083565b82805461123c90611ccb565b90600052602060002090601f01602090048101928261125e57600085556112a5565b82601f1061127757805160ff19168380011785556112a5565b828001600101855582156112a5579182015b828111156112a4578251825591602001919060010190611289565b5b5090506112b291906112b6565b5090565b5b808211156112cf5760008160009055506001016112b7565b5090565b60006112e66112e184611b4b565b611b1a565b9050828152602081018484840111156112fe57600080fd5b611309848285611c89565b509392505050565b600082601f83011261132257600080fd5b81356113328482602086016112d3565b91505092915050565b60008135905061134a81611de4565b92915050565b6000806040838503121561136357600080fd5b600083013567ffffffffffffffff81111561137d57600080fd5b61138985828601611311565b925050602083013567ffffffffffffffff8111156113a657600080fd5b6113b285828601611311565b9150509250929050565b6000602082840312156113ce57600080fd5b60006113dc8482850161133b565b91505092915050565b600080604083850312156113f857600080fd5b60006114068582860161133b565b925050602083013567ffffffffffffffff81111561142357600080fd5b61142f85828601611311565b9150509250929050565b60008060006060848603121561144e57600080fd5b600061145c8682870161133b565b935050602084013567ffffffffffffffff81111561147957600080fd5b61148586828701611311565b925050604084013567ffffffffffffffff8111156114a257600080fd5b6114ae86828701611311565b9150509250925092565b60006114c4838361162d565b60208301905092915050565b60006114dc838361164b565b905092915050565b60006114f083836118ad565b60208301905092915050565b600061150782611bc0565b6115118185611c13565b935061151c83611b7b565b8060005b8381101561154d57815161153488826114b8565b975061153f83611bec565b925050600181019050611520565b5085935050505092915050565b600061156582611bcb565b61156f8185611c24565b93508360208202850161158185611b8b565b8060005b858110156115bd578484038952815161159e85826114d0565b94506115a983611bf9565b925060208a01995050600181019050611585565b50829750879550505050505092915050565b60006115da82611bd6565b6115e48185611c35565b93506115ef83611b9b565b8060005b8381101561162057815161160788826114e4565b975061161283611c06565b9250506001810190506115f3565b5085935050505092915050565b61163681611c73565b82525050565b61164581611c73565b82525050565b600061165682611be1565b6116608185611c46565b9350611670818560208601611c98565b61167981611dd3565b840191505092915050565b600061168f82611be1565b6116998185611c57565b93506116a9818560208601611c98565b6116b281611dd3565b840191505092915050565b60006116c882611be1565b6116d28185611c68565b93506116e2818560208601611c98565b80840191505092915050565b600081546116fb81611ccb565b6117058186611c68565b94506001821660008114611720576001811461173157611764565b60ff19831686528186019350611764565b61173a85611bab565b60005b8381101561175c5781548189015260018201915060208101905061173d565b838801955050505b50505092915050565b600061177a601a83611c57565b91507f50686f6e65206973206e6f74207265706f72746564206c6f73740000000000006000830152602082019050919050565b60006117ba601383611c57565b91507f494d4549206e6f742072656769737465726564000000000000000000000000006000830152602082019050919050565b60006117fa601b83611c57565b91507f50686f6e6520616c7265616479207265706f72746564206c6f737400000000006000830152602082019050919050565b600061183a601883611c57565b91507f4e6f20494d4549277320726567697374657265642079657400000000000000006000830152602082019050919050565b600061187a601783611c57565b91507f494d454920616c726561647920726567697374657265640000000000000000006000830152602082019050919050565b6118b681611c7f565b82525050565b6118c581611c7f565b82525050565b60006118d782846116bd565b915081905092915050565b60006118ee82846116ee565b915081905092915050565b6000608082019050818103600083015261191381876115cf565b9050818103602083015261192781866114fc565b9050818103604083015261193b818561155a565b9050818103606083015261194f818461155a565b905095945050505050565b600060208201905061196f600083018461163c565b92915050565b6000604082019050818103600083015261198f8185611684565b905081810360208301526119a38184611684565b90509392505050565b600060608201905081810360008301526119c68186611684565b905081810360208301526119da8185611684565b90506119e9604083018461163c565b949350505050565b60006020820190508181036000830152611a0a8161176d565b9050919050565b60006020820190508181036000830152611a2a816117ad565b9050919050565b60006020820190508181036000830152611a4a816117ed565b9050919050565b60006020820190508181036000830152611a6a8161182d565b9050919050565b60006020820190508181036000830152611a8a8161186d565b9050919050565b6000602082019050611aa660008301846118bc565b92915050565b6000604082019050611ac160008301856118bc565b611ace602083018461163c565b9392505050565b6000606082019050611aea60008301866118bc565b8181036020830152611afc8185611684565b90508181036040830152611b108184611684565b9050949350505050565b6000604051905081810181811067ffffffffffffffff82111715611b4157611b40611da4565b5b8060405250919050565b600067ffffffffffffffff821115611b6657611b65611da4565b5b601f19601f8301169050602081019050919050565b6000819050602082019050919050565b6000819050602082019050919050565b6000819050602082019050919050565b60008190508160005260206000209050919050565b600081519050919050565b600081519050919050565b600081519050919050565b600081519050919050565b6000602082019050919050565b6000602082019050919050565b6000602082019050919050565b600082825260208201905092915050565b600082825260208201905092915050565b600082825260208201905092915050565b600082825260208201905092915050565b600082825260208201905092915050565b600081905092915050565b60008115159050919050565b6000819050919050565b82818337600083830152505050565b60005b83811015611cb6578082015181840152602081019050611c9b565b83811115611cc5576000848401525b50505050565b60006002820490506001821680611ce357607f821691505b60208210811415611cf757611cf6611d75565b5b50919050565b6000611d0882611c7f565b91507fffffffffffffffffffffffffffffffffffffffffffffffffffffffffffffffff821415611d3b57611d3a611d46565b5b600182019050919050565b7f4e487b7100000000000000000000000000000000000000000000000000000000600052601160045260246000fd5b7f4e487b7100000000000000000000000000000000000000000000000000000000600052602260045260246000fd5b7f4e487b7100000000000000000000000000000000000000000000000000000000600052604160045260246000fd5b6000601f19601f8301169050919050565b611ded81611c7f565b8114611df857600080fd5b5056fea2646970667358221220a2dbd26c645387c65307d9f590c8da9727434912c8582c96060e7c74b9f097c664736f6c63430008000033",
  "immutableReferences": {},
  "source": "// SPDX-License-Identifier: MIT\npragma solidity ^0.8.0;\n\ncontract PhoneRegistry {\n    struct Phone {\n        string username;\n        string password;\n        bool lost;\n    }\n   struct location{\n        string latitude;\n        string longitude;\n    }\n    mapping(uint256 => Phone) public phones;\n    uint256[] registered_imei;\n    mapping(uint256 => bool) public isRegistered;\n    mapping(uint256 => location) public getlocation;\n\n    event PhoneRegistered(uint256 imei, string username, string password);\n    event PhoneLost(uint256 imei);\n    event PhoneFound(uint256 imei);\n\n    constructor() {\n        // Add initial data in the constructor\n        registerPhone(123456789012345, \"Alice\", \"alice123\");\n        registerPhone(987654321098765, \"Bob\", \"bob456\");\n    }\n\n    function registerPhone(uint256 imei, string memory username, string memory password) public {\n        require(!isRegistered[imei], \"IMEI already registered\");\n        phones[imei] = Phone(username, password, false);\n        registered_imei.push(imei);\n        isRegistered[imei] = true;\n        emit PhoneRegistered(imei, username, password);\n    }\n\n    function reportLost(uint256 imei) public {\n        require(isRegistered[imei], \"IMEI not registered\");\n        require(!phones[imei].lost, \"Phone already reported lost\");\n        phones[imei].lost = true;\n        emit PhoneLost(imei);\n    }\n\n    function reportFound(uint256 imei) public {\n        require(isRegistered[imei], \"IMEI not registered\");\n        require(phones[imei].lost, \"Phone is not reported lost\");\n        phones[imei].lost = false;\n        emit PhoneFound(imei);\n    }\n\n    function changePassword(uint256 imei, string memory newPassword) public {\n        require(isRegistered[imei], \"IMEI not registered\");\n        phones[imei].password = newPassword;\n    }\n    \n   function login(string memory username, string memory password) public view returns (uint256, bool) {\n    uint256 temp_imei=0; bool temp_state = false;\n        for(uint256 i=0;i<registered_imei.length; i++){\n            temp_imei = registered_imei[i];\n            temp_state = phones[temp_imei].lost;\n            if(keccak256(abi.encodePacked(phones[temp_imei].username)) == keccak256(abi.encodePacked(username)) && keccak256(abi.encodePacked(phones[temp_imei].password)) == keccak256(abi.encodePacked(password))){\n                return (temp_imei,temp_state);\n            }\n        }\n        return (temp_imei,false);\n    }\n\n    function getAllRegisteredPhones() public view returns (uint256[] memory, bool[] memory, string[] memory, string[] memory) {\n        require(registered_imei.length > 0, \"No IMEI's registered yet\");\n        bool[] memory loststatus = new bool[](registered_imei.length);\n        string[] memory latitudes = new string[](registered_imei.length);\n        string[] memory longitudes = new string[](registered_imei.length);\n\n        for(uint256 i=0;i<registered_imei.length; i++){\n            loststatus[i] = phones[registered_imei[i]].lost;\n            latitudes[i] = getlocation[registered_imei[i]].latitude;\n            longitudes[i] = getlocation[registered_imei[i]].longitude;\n        }\n\n        return (registered_imei,loststatus,latitudes, longitudes);\n    }\n     function updateLocation(uint256 imei, string memory latitude, string memory longitude) public {\n        getlocation[imei].latitude = latitude;\n        getlocation[imei].longitude = longitude;\n    }\n\n    function getLocation(uint256 imei) public view returns (string memory, string memory) {\n        require(isRegistered[imei], \"IMEI not registered\");\n        return (getlocation[imei].latitude, getlocation[imei].longitude);\n    }\n}\n",
  "sourcePath": "/Users/anikdas/Desktop/iot-proj/contracts/PhoneRegistry.sol",
  "compiler": {
    "name": "solc",
    "version": "0.8.0+commit.c7dfd78e.Emscripten.clang"
  },
  "schemaVersion": "3.4.16",
  "updatedAt": "2024-04-29T12:42:49.089Z",
  "networkType": "ethereum",
  "devdoc": {
    "kind": "dev",
    "methods": {},
    "version": 1
  },
  "userdoc": {
    "kind": "user",
    "methods": {},
    "version": 1
  }
}