{
  "contractName": "PhoneRegistry",
  "abi": [
    {
      "inputs": [],
      "stateMutability": "nonpayable",
      "type": "constructor"
    },
    {
      "anonymous": false,
      "inputs": [
        {
          "indexed": false,
          "internalType": "uint256",
          "name": "imei",
          "type": "uint256"
        }
      ],
      "name": "PhoneFound",
      "type": "event"
    },
    {
      "anonymous": false,
      "inputs": [
        {
          "indexed": false,
          "internalType": "uint256",
          "name": "imei",
          "type": "uint256"
        }
      ],
      "name": "PhoneLost",
      "type": "event"
    },
    {
      "anonymous": false,
      "inputs": [
        {
          "indexed": false,
          "internalType": "uint256",
          "name": "imei",
          "type": "uint256"
        },
        {
          "indexed": false,
          "internalType": "string",
          "name": "username",
          "type": "string"
        },
        {
          "indexed": false,
          "internalType": "string",
          "name": "password",
          "type": "string"
        }
      ],
      "name": "PhoneRegistered",
      "type": "event"
    },
    {
      "inputs": [
        {
          "internalType": "uint256",
          "name": "",
          "type": "uint256"
        }
      ],
      "name": "isRegistered",
      "outputs": [
        {
          "internalType": "bool",
          "name": "",
          "type": "bool"
        }
      ],
      "stateMutability": "view",
      "type": "function",
      "constant": true
    },
    {
      "inputs": [
        {
          "internalType": "uint256",
          "name": "",
          "type": "uint256"
        }
      ],
      "name": "phones",
      "outputs": [
        {
          "internalType": "string",
          "name": "username",
          "type": "string"
        },
        {
          "internalType": "string",
          "name": "password",
          "type": "string"
        },
        {
          "internalType": "bool",
          "name": "lost",
          "type": "bool"
        }
      ],
      "stateMutability": "view",
      "type": "function",
      "constant": true
    },
    {
      "inputs": [
        {
          "internalType": "uint256",
          "name": "imei",
          "type": "uint256"
        },
        {
          "internalType": "string",
          "name": "username",
          "type": "string"
        },
        {
          "internalType": "string",
          "name": "password",
          "type": "string"
        }
      ],
      "name": "registerPhone",
      "outputs": [],
      "stateMutability": "nonpayable",
      "type": "function"
    },
    {
      "inputs": [
        {
          "internalType": "uint256",
          "name": "imei",
          "type": "uint256"
        }
      ],
      "name": "reportLost",
      "outputs": [],
      "stateMutability": "nonpayable",
      "type": "function"
    },
    {
      "inputs": [
        {
          "internalType": "uint256",
          "name": "imei",
          "type": "uint256"
        }
      ],
      "name": "reportFound",
      "outputs": [],
      "stateMutability": "nonpayable",
      "type": "function"
    },
    {
      "inputs": [
        {
          "internalType": "uint256",
          "name": "imei",
          "type": "uint256"
        },
        {
          "internalType": "string",
          "name": "newPassword",
          "type": "string"
        }
      ],
      "name": "changePassword",
      "outputs": [],
      "stateMutability": "nonpayable",
      "type": "function"
    },
    {
      "inputs": [
        {
          "internalType": "string",
          "name": "username",
          "type": "string"
        },
        {
          "internalType": "string",
          "name": "password",
          "type": "string"
        }
      ],
      "name": "login",
      "outputs": [
        {
          "internalType": "bool",
          "name": "",
          "type": "bool"
        }
      ],
      "stateMutability": "view",
      "type": "function",
      "constant": true
    }
  ],
  "bytecode": "0x60806040523480156200001157600080fd5b5062000095657048860ddf796040518060400160405280600581526020017f416c6963650000000000000000000000000000000000000000000000000000008152506040518060400160405280600881526020017f616c6963653132330000000000000000000000000000000000000000000000008152506200011f60201b60201c565b620001196603824430f8500d6040518060400160405280600381526020017f426f6200000000000000000000000000000000000000000000000000000000008152506040518060400160405280600681526020017f626f6234353600000000000000000000000000000000000000000000000000008152506200011f60201b60201c565b62000504565b6001600084815260200190815260200160002060009054906101000a900460ff161562000183576040517f08c379a00000000000000000000000000000000000000000000000000000000081526004016200017a90620003c5565b60405180910390fd5b6040518060600160405280838152602001828152602001600015158152506000808581526020019081526020016000206000820151816000019080519060200190620001d192919062000281565b506020820151816001019080519060200190620001f092919062000281565b5060408201518160020160006101000a81548160ff021916908315150217905550905050600180600085815260200190815260200160002060006101000a81548160ff0219169083151502179055507fa3061c8bfc3f0adc7b0685493d80695b8bed655beab79c4cecd72ebc107073d18383836040516200027493929190620003e7565b60405180910390a1505050565b8280546200028f906200048e565b90600052602060002090601f016020900481019282620002b35760008555620002ff565b82601f10620002ce57805160ff1916838001178555620002ff565b82800160010185558215620002ff579182015b82811115620002fe578251825591602001919060010190620002e1565b5b5090506200030e919062000312565b5090565b5b808211156200032d57600081600090555060010162000313565b5090565b60006200033e8262000432565b6200034a81856200043d565b93506200035c81856020860162000458565b6200036781620004f3565b840191505092915050565b6000620003816017836200043d565b91507f494d454920616c726561647920726567697374657265640000000000000000006000830152602082019050919050565b620003bf816200044e565b82525050565b60006020820190508181036000830152620003e08162000372565b9050919050565b6000606082019050620003fe6000830186620003b4565b818103602083015262000412818562000331565b9050818103604083015262000428818462000331565b9050949350505050565b600081519050919050565b600082825260208201905092915050565b6000819050919050565b60005b83811015620004785780820151818401526020810190506200045b565b8381111562000488576000848401525b50505050565b60006002820490506001821680620004a757607f821691505b60208210811415620004be57620004bd620004c4565b5b50919050565b7f4e487b7100000000000000000000000000000000000000000000000000000000600052602260045260246000fd5b6000601f19601f8301169050919050565b610ff880620005146000396000f3fe608060405234801561001057600080fd5b506004361061007d5760003560e01c8063c823c8551161005b578063c823c855146100fe578063e0ba09991461011a578063f055e12b14610136578063f3730653146101525761007d565b8063579a69881461008257806358467dbc146100b2578063c7719511146100e2575b600080fd5b61009c60048036038101906100979190610980565b610184565b6040516100a99190610cd5565b60405180910390f35b6100cc60048036038101906100c79190610914565b6101a4565b6040516100d99190610cd5565b60405180910390f35b6100fc60048036038101906100f79190610980565b610271565b005b61011860048036038101906101139190610980565b61039c565b005b610134600480360381019061012f91906109a9565b6104c6565b005b610150600480360381019061014b91906109fd565b610554565b005b61016c60048036038101906101679190610980565b6106ad565b60405161017b93929190610cf0565b60405180910390f35b60016020528060005260406000206000915054906101000a900460ff1681565b60008083836040516020016101ba929190610c9a565b6040516020818303038152906040528051906020012060001c90506001600082815260200190815260200160002060009054906101000a900460ff1661020457600091505061026b565b826040516020016102159190610c83565b604051602081830303815290604052805190602001206000808381526020019081526020016000206001016040516020016102509190610cbe565b60405160208183030381529060405280519060200120149150505b92915050565b6001600082815260200190815260200160002060009054906101000a900460ff166102d1576040517f08c379a00000000000000000000000000000000000000000000000000000000081526004016102c890610d55565b60405180910390fd5b60008082815260200190815260200160002060020160009054906101000a900460ff1615610334576040517f08c379a000000000000000000000000000000000000000000000000000000000815260040161032b90610d75565b60405180910390fd5b600160008083815260200190815260200160002060020160006101000a81548160ff0219169083151502179055507fb0c955aa27fd2d084ddeb122c749e76e050df66a4f14bcfd102d9578b7263899816040516103919190610db5565b60405180910390a150565b6001600082815260200190815260200160002060009054906101000a900460ff166103fc576040517f08c379a00000000000000000000000000000000000000000000000000000000081526004016103f390610d55565b60405180910390fd5b60008082815260200190815260200160002060020160009054906101000a900460ff1661045e576040517f08c379a000000000000000000000000000000000000000000000000000000000815260040161045590610d35565b60405180910390fd5b600080600083815260200190815260200160002060020160006101000a81548160ff0219169083151502179055507ff283a8be29f5b84dc10357eb68cd670fbda7ef8c6a17c905a7139c484d787387816040516104bb9190610db5565b60405180910390a150565b6001600083815260200190815260200160002060009054906101000a900460ff16610526576040517f08c379a000000000000000000000000000000000000000000000000000000000815260040161051d90610d55565b60405180910390fd5b80600080848152602001908152602001600020600101908051906020019061054f9291906107f4565b505050565b6001600084815260200190815260200160002060009054906101000a900460ff16156105b5576040517f08c379a00000000000000000000000000000000000000000000000000000000081526004016105ac90610d95565b60405180910390fd5b60405180606001604052808381526020018281526020016000151581525060008085815260200190815260200160002060008201518160000190805190602001906106019291906107f4565b50602082015181600101908051906020019061061e9291906107f4565b5060408201518160020160006101000a81548160ff021916908315150217905550905050600180600085815260200190815260200160002060006101000a81548160ff0219169083151502179055507fa3061c8bfc3f0adc7b0685493d80695b8bed655beab79c4cecd72ebc107073d18383836040516106a093929190610dd0565b60405180910390a1505050565b60006020528060005260406000206000915090508060000180546106d090610f0a565b80601f01602080910402602001604051908101604052809291908181526020018280546106fc90610f0a565b80156107495780601f1061071e57610100808354040283529160200191610749565b820191906000526020600020905b81548152906001019060200180831161072c57829003601f168201915b50505050509080600101805461075e90610f0a565b80601f016020809104026020016040519081016040528092919081815260200182805461078a90610f0a565b80156107d75780601f106107ac576101008083540402835291602001916107d7565b820191906000526020600020905b8154815290600101906020018083116107ba57829003601f168201915b5050505050908060020160009054906101000a900460ff16905083565b82805461080090610f0a565b90600052602060002090601f0160209004810192826108225760008555610869565b82601f1061083b57805160ff1916838001178555610869565b82800160010185558215610869579182015b8281111561086857825182559160200191906001019061084d565b5b509050610876919061087a565b5090565b5b8082111561089357600081600090555060010161087b565b5090565b60006108aa6108a584610e46565b610e15565b9050828152602081018484840111156108c257600080fd5b6108cd848285610ec8565b509392505050565b600082601f8301126108e657600080fd5b81356108f6848260208601610897565b91505092915050565b60008135905061090e81610fab565b92915050565b6000806040838503121561092757600080fd5b600083013567ffffffffffffffff81111561094157600080fd5b61094d858286016108d5565b925050602083013567ffffffffffffffff81111561096a57600080fd5b610976858286016108d5565b9150509250929050565b60006020828403121561099257600080fd5b60006109a0848285016108ff565b91505092915050565b600080604083850312156109bc57600080fd5b60006109ca858286016108ff565b925050602083013567ffffffffffffffff8111156109e757600080fd5b6109f3858286016108d5565b9150509250929050565b600080600060608486031215610a1257600080fd5b6000610a20868287016108ff565b935050602084013567ffffffffffffffff811115610a3d57600080fd5b610a49868287016108d5565b925050604084013567ffffffffffffffff811115610a6657600080fd5b610a72868287016108d5565b9150509250925092565b610a8581610eb2565b82525050565b6000610a9682610e8b565b610aa08185610e96565b9350610ab0818560208601610ed7565b610ab981610f9a565b840191505092915050565b6000610acf82610e8b565b610ad98185610ea7565b9350610ae9818560208601610ed7565b80840191505092915050565b60008154610b0281610f0a565b610b0c8186610ea7565b94506001821660008114610b275760018114610b3857610b6b565b60ff19831686528186019350610b6b565b610b4185610e76565b60005b83811015610b6357815481890152600182019150602081019050610b44565b838801955050505b50505092915050565b6000610b81601a83610e96565b91507f50686f6e65206973206e6f74207265706f72746564206c6f73740000000000006000830152602082019050919050565b6000610bc1601383610e96565b91507f494d4549206e6f742072656769737465726564000000000000000000000000006000830152602082019050919050565b6000610c01601b83610e96565b91507f50686f6e6520616c7265616479207265706f72746564206c6f737400000000006000830152602082019050919050565b6000610c41601783610e96565b91507f494d454920616c726561647920726567697374657265640000000000000000006000830152602082019050919050565b610c7d81610ebe565b82525050565b6000610c8f8284610ac4565b915081905092915050565b6000610ca68285610ac4565b9150610cb28284610ac4565b91508190509392505050565b6000610cca8284610af5565b915081905092915050565b6000602082019050610cea6000830184610a7c565b92915050565b60006060820190508181036000830152610d0a8186610a8b565b90508181036020830152610d1e8185610a8b565b9050610d2d6040830184610a7c565b949350505050565b60006020820190508181036000830152610d4e81610b74565b9050919050565b60006020820190508181036000830152610d6e81610bb4565b9050919050565b60006020820190508181036000830152610d8e81610bf4565b9050919050565b60006020820190508181036000830152610dae81610c34565b9050919050565b6000602082019050610dca6000830184610c74565b92915050565b6000606082019050610de56000830186610c74565b8181036020830152610df78185610a8b565b90508181036040830152610e0b8184610a8b565b9050949350505050565b6000604051905081810181811067ffffffffffffffff82111715610e3c57610e3b610f6b565b5b8060405250919050565b600067ffffffffffffffff821115610e6157610e60610f6b565b5b601f19601f8301169050602081019050919050565b60008190508160005260206000209050919050565b600081519050919050565b600082825260208201905092915050565b600081905092915050565b60008115159050919050565b6000819050919050565b82818337600083830152505050565b60005b83811015610ef5578082015181840152602081019050610eda565b83811115610f04576000848401525b50505050565b60006002820490506001821680610f2257607f821691505b60208210811415610f3657610f35610f3c565b5b50919050565b7f4e487b7100000000000000000000000000000000000000000000000000000000600052602260045260246000fd5b7f4e487b7100000000000000000000000000000000000000000000000000000000600052604160045260246000fd5b6000601f19601f8301169050919050565b610fb481610ebe565b8114610fbf57600080fd5b5056fea26469706673582212209c8868f04610324f93b8b1a09c6adefce889a210cac32fa3a7c9491d25e4ef5a64736f6c63430008000033",
  "immutableReferences": {},
  "source": "// SPDX-License-Identifier: MIT\npragma solidity ^0.8.0;\n\ncontract PhoneRegistry {\n    struct Phone {\n        string username;\n        string password;\n        bool lost;\n    }\n\n    mapping(uint256 => Phone) public phones;\n    mapping(uint256 => bool) public isRegistered;\n\n    event PhoneRegistered(uint256 imei, string username, string password);\n    event PhoneLost(uint256 imei);\n    event PhoneFound(uint256 imei);\n\n    constructor() {\n        // Add initial data in the constructor\n        registerPhone(123456789012345, \"Alice\", \"alice123\");\n        registerPhone(987654321098765, \"Bob\", \"bob456\");\n    }\n\n    function registerPhone(uint256 imei, string memory username, string memory password) public {\n        require(!isRegistered[imei], \"IMEI already registered\");\n        phones[imei] = Phone(username, password, false);\n        isRegistered[imei] = true;\n        emit PhoneRegistered(imei, username, password);\n    }\n\n    function reportLost(uint256 imei) public {\n        require(isRegistered[imei], \"IMEI not registered\");\n        require(!phones[imei].lost, \"Phone already reported lost\");\n        phones[imei].lost = true;\n        emit PhoneLost(imei);\n    }\n\n    function reportFound(uint256 imei) public {\n        require(isRegistered[imei], \"IMEI not registered\");\n        require(phones[imei].lost, \"Phone is not reported lost\");\n        phones[imei].lost = false;\n        emit PhoneFound(imei);\n    }\n\n    function changePassword(uint256 imei, string memory newPassword) public {\n        require(isRegistered[imei], \"IMEI not registered\");\n        phones[imei].password = newPassword;\n    }\n\n    function login(string memory username, string memory password) public view returns (bool) {\n        uint256 imei = uint256(keccak256(abi.encodePacked(username, password)));\n        if (!isRegistered[imei]) {\n            return false;\n        }\n        return keccak256(abi.encodePacked(phones[imei].password)) == keccak256(abi.encodePacked(password));\n    }\n}\n",
  "sourcePath": "/Users/anikdas/Desktop/iot-proj/contracts/PhoneRegistry.sol",
  "compiler": {
    "name": "solc",
    "version": "0.8.0+commit.c7dfd78e.Emscripten.clang"
  },
  "schemaVersion": "3.4.16",
  "updatedAt": "2024-03-31T16:58:30.706Z",
  "networkType": "ethereum",
  "devdoc": {
    "kind": "dev",
    "methods": {},
    "version": 1
  },
  "userdoc": {
    "kind": "user",
    "methods": {},
    "version": 1
  }
}